:100000000C948A000C94AB000C94AB000C945D052E
:100010000C94AB000C94AB000C94AB000C94AB00B4
:100020000C94AB000C94AB000C94AB000C94AB00A4
:100030000C94AB000C94AB000C94AB000C94AB0094
:100040000C94AB000C94AB000C94AB000C94AB0084
:100050000C94AB000C9438050C94AB000C94AB00E2
:100060000C94AB000C946C050C94AB000C94AB009E
:100070000C94AB000C94AB000C94AB000C94AB0054
:100080000C94AB000C94AB000C94AB000C94AB0044
:100090000C94AB000C94AB000C94AB000C94AB0034
:1000A0000C94AB000C94AB000C94AB000C94AB0024
:1000B0000C94AB000C94AB000C94AB000C94AB0014
:1000C0000C94AB000C94AB000C94AB000C94AB0004
:1000D0000C94AB000C94AB000C94AB000C94AB00F4
:1000E0000C94AB000C9401020C94C7000C94E10238
:1000F0000C948A030C94D6000C94AD000C94270148
:100100000C9471020C9458040C9491010C94C20349
:100110000C945B0311241FBECFEFD1E2DEBFCDBF35
:1001200000E00CBF15E0A0E0B2E0E8E1F2E100E0A1
:100130000BBF02C007900D92A03BB107D9F725E095
:10014000A0EBB5E001C01D92A53EB207E1F70E9409
:1001500012060C940A090C9400008AE393E00E94B2
:10016000B505E7E0F1E0808190914B0221E030E0BD
:1001700001C0220F9A95EAF7822B8083E2E0F1E03A
:1001800080818160808382EB93E00C94B5058FE4DD
:1001900093E00E94B50588E198E00FB6F894A89521
:1001A000809360000FBE90936000FFCF48B1E0E302
:1001B000F2E0268181E090E0BC0102C0660F771F6B
:1001C0002A95E2F79B012095242328B97FEF29E6A1
:1001D00038E1715020403040E1F700C0000048B1E4
:1001E0002081BC0102C0660F771F2A95E2F79B01B0
:1001F0003381BC0101C0660F3A95EAF7262B2095A2
:10020000242328B974E527E93FEB41E071502040F1
:1002100030404040D9F700C000C0000048B12681FE
:10022000BC0102C0660F771F2A95E2F79B0130815F
:10023000BC0101C0660F3A95EAF7262B242B3381C7
:1002400001C0880F3A95EAF7822B88B9089548B122
:10025000E0E3F2E0268181E090E0BC0102C0660F9D
:10026000771F2A95E2F79B012095242328B97FEF79
:1002700029E638E1715020403040E1F700C000002D
:1002800048B12081BC0102C0660F771F2A95E2F7B2
:100290009B013381BC0101C0660F3A95EAF7262B1A
:1002A0002095242328B97FEF27EA31E671502040BA
:1002B0003040E1F700C0000027B13785AC0101C034
:1002C000440F3A95EAF7242B27B944E557E96FEB39
:1002D00071E04150504060407040D9F700C000C00C
:1002E000000048B12681BC0102C0660F771F2A9525
:1002F000E2F79B013081BC0101C0660F3A95EAF735
:10030000262B242B3381AC0101C0440F3A95EAF728
:10031000242B378501C0880F3A95EAF7822B88B9DC
:10032000089548B1E0E3F2E0268181E090E0BC016D
:1003300002C0660F771F2A95E2F79B0120952423C0
:1003400028B97FEF29E638E1715020403040E1F7CD
:1003500000C0000048B12081BC0102C0660F771FB9
:100360002A95E2F79B013381BC0101C0660F3A95E3
:10037000EAF7262B2095242328B97FEF27EA31E6D8
:10038000715020403040E1F700C00000A7E0B1E02C
:100390002C913289AC0101C0440F3A95EAF7242B25
:1003A0002C9344E557E96FEB71E0415050406040B9
:1003B0007040D9F700C000C0000048B12681BC01E0
:1003C00002C0660F771F2A95E2F79B013081BC01BE
:1003D00001C0660F3A95EAF7262B242B3381AC0136
:1003E00001C0440F3A95EAF7242B28B9A8E0B1E000
:1003F0002C91328901C0880F3A95EAF7822B8C93B1
:10040000089548B1E0E3F2E0268181E090E0BC018C
:1004100002C0660F771F2A95E2F79B0120952423DF
:1004200028B97FEF29E638E1715020403040E1F7EC
:1004300000C0000048B12081BC0102C0660F771FD8
:100440002A95E2F79B013381BC0101C0660F3A9502
:10045000EAF7262B2095242328B97FEF27EA31E6F7
:10046000715020403040E1F700C00000A7E0B1E04B
:100470002C913589AC0101C0440F3A95EAF7242B41
:100480002C9344E557E96FEB71E0415050406040D8
:100490007040D9F700C000C0000048B12681BC01FF
:1004A00002C0660F771F2A95E2F79B013081BC01DD
:1004B00001C0660F3A95EAF7262B242B3381AC0155
:1004C00001C0440F3A95EAF7242B28B9A8E0B1E01F
:1004D0002C91358901C0880F3A95EAF7822B8C93CD
:1004E000089548B1E0E3F2E0268181E090E0BC01AC
:1004F00002C0660F771F2A95E2F79B0120952423FF
:1005000028B97FEF29E638E1715020403040E1F70B
:1005100000C0000048B12081BC0102C0660F771FF7
:100520002A95E2F79B013381BC0101C0660F3A9521
:10053000EAF7262B2095242328B97FEF27EA31E616
:10054000715020403040E1F700C00000A7E0B1E06A
:100550002C91308DAC0101C0440F3A95EAF7242B61
:100560002C9344E557E96FEB71E0415050406040F7
:100570007040D9F700C000C0000048B12681BC011E
:1005800002C0660F771F2A95E2F79B013081BC01FC
:1005900001C0660F3A95EAF7262B242B3381AC0174
:1005A00001C0440F3A95EAF7242B28B9A8E0B1E03E
:1005B0002C91308D01C0880F3A95EAF7822B8C93ED
:1005C000089548B1E0E3F2E0268181E090E0BC01CB
:1005D00002C0660F771F2A95E2F79B01209524231E
:1005E00028B97FEF29E638E1715020403040E1F72B
:1005F00000C0000048B12081BC0102C0660F771F17
:100600002A95E2F79B013381BC0101C0660F3A9540
:10061000EAF7262B2095242328B97FEF27EA31E635
:10062000715020403040E1F700C0000047B1218503
:10063000BC0102C0660F771F2A95E2F79B01348543
:10064000BC0101C0660F3A95EAF7262B242B27B987
:1006500074E527E93FEB41E07150204030404040D5
:10066000D9F700C000C0000048B12681BC0102C01B
:10067000660F771F2A95E2F79B013081BC0101C00C
:10068000660F3A95EAF7262B242B3381AC0101C083
:10069000440F3A95EAF7242B3185AC0101C0440F91
:1006A0003A95EAF7242B348501C0880F3A95EAF78A
:1006B000822B88B908958FE593E00E94B50587B134
:1006C000E0E3F2E0968121E030E0A90101C0440FAF
:1006D0009A95EAF7842B87B94FEF69E678E14150A4
:1006E00060407040E1F700C0000047B18081B9016F
:1006F00002C0660F771F8A95E2F7CB01938101C094
:10070000220F9A95EAF7822B842B87B982EB93E02C
:100710000C94B50580E793E00E94B50588B1E0E34D
:10072000F2E0968121E030E0A90101C0440F9A95E2
:10073000EAF7842B88B94FEF6FE473EC41506040C7
:100740007040E1F700C0000048B18081B90102C0EB
:10075000660F771F8A95E2F7CB01938101C0220FC4
:100760009A95EAF7822B842B88B97FEF8DE399E481
:10077000715080409040E1F700C0000082EB93E0B0
:100780000C94B5058FE793E00E94B50548B1E0E30E
:10079000F2E0868121E030E0B90102C0660F771FE8
:1007A0008A95E2F7CB018095842388B97FEF89E6AB
:1007B00098E1715080409040E1F700C0000048B1DE
:1007C0008081B90102C0660F771F8A95E2F7CB01DD
:1007D0009381B90101C0660F9A95EAF7862B80953F
:1007E000842388B97FEF87EA91E67150804090407A
:1007F000E1F700C00000A7E0B1E08C91968D01C048
:10080000220F9A95EAF7282B2C9382EB93E00C9415
:10081000B505EF92FF920F931F93CF93DF93DC0107
:100820002D913C91E0EBF2E0D0E0C0E040815181BD
:100830004217530781F5428153814617570759F5EF
:100840008C01CE01880F991F880F991FFC01EC5A6B
:10085000FD4F7F01808191810E94B5058CE593E079
:100860000E94B505D7011296ED91FC91199586E08D
:100870008C9FF0018D9FF00D1124E055FD4F848178
:100880009581F80191838083DF91CF911F910F9122
:10089000FF90EF90089521963696C731D10531F635
:1008A000F3CFE9E6F0E0808180638083EA9A0895DF
:1008B000CF92DF92EF92FF920F931F93CF93DF932C
:1008C00084E993E00E94B50580910701909151025F
:1008D00021E030E001C0220F9A95EAF7822B809345
:1008E0000701C090B405D090B505E090B605F09032
:1008F000B7050E94510480917B00806480937B0047
:10090000C9EAD3E00CEB15E08091B0058823C9F16A
:100910001092B0058091B4059091B505A091B605EF
:10092000B091B7058C199D09AE09BF098531954075
:10093000A105B10530F183EA93E00E94B5058091ED
:10094000B4059091B505A091B605B091B7058C1985
:100950009D09AE09BF09BF93AF939F938F93DF9318
:10096000CF931F930F930E9434068CEB95E00E9467
:10097000B5058DB79EB708960FB6F8949EBF0FBE0B
:100980008DBF8091B4059091B505A091B605B09149
:10099000B7058C199D09AE09BF0989329342A1059B
:1009A000B10508F4B1CF48B18091360221E030E0C2
:1009B000B90102C0660F771F8A95E2F7CB019091CB
:1009C0003002B90101C0660F9A95EAF7862B842B95
:1009D00090913302A90101C0440F9A95EAF7842B44
:1009E00088B9809108019091510201C0220F9A9517
:1009F000EAF7282B209308018FEA93E0DF91CF914B
:100A00001F910F91FF90EF90DF90CF900C94B50560
:100A1000E1E0F1E0808183608083E4E0F1E08081C7
:100A200083608083E5E0F1E08081836080830895C6
:100A3000279A8DB188638DB98EB188638EB99D9ADE
:100A4000A59A80EF80BBE7E0F1E08081826080833F
:100A5000E8E0F1E08081826080830E9408050E94C6
:100A60009B050E948D0583B7817F83BF789408958D
:100A70001F920F920FB60F9211248F939F93AF93F3
:100A8000BF938091B4059091B505A091B605B09142
:100A9000B7050196A11DB11D8093B4059093B505CE
:100AA000A093B605B093B705BF91AF919F918F9179
:100AB0000F900FBE0F901F9018951F920F920FB6B8
:100AC0000F9211248F9381E08093B0058F910F9046
:100AD0000FBE0F901F9018951F920F920FB60F9296
:100AE00011248F938091C6008093E40581E0809368
:100AF000B1058F910F900FBE0F901F90189584B184
:100B0000876084B9289A8CB583658CBD08958EBDA5
:100B10000DB407FEFDCF8EB5089584B5826084BD07
:100B200085B5836085BDEEE6F0E0808182608083DC
:100B300089EF87BD089580E18093C4001092C500BD
:100B4000E0ECF0E0808182608083E1ECF0E0808185
:100B50008861808380818068808308959091C0003F
:100B600095FFFCCF8093C6000895CF93DF93EC01EF
:100B70008991811103C0DF91CF9108950E94AE0544
:100B8000F7CF80E18093CC001092CD00E8ECF0E04C
:100B9000808182608083E9ECF0E0808188618083DD
:100BA00008959091C80095FFFCCF8093CE000895E2
:100BB00080E18093D4001092D500E0EDF0E08081D8
:100BC00082608083E1EDF0E0808188618083089518
:100BD0009091D00095FFFCCF8093D6000895CF93DD
:100BE000DF93EC018991811103C0DF91CF910895CA
:100BF0000E94E805F7CF80E180933401109235011F
:100C0000E0E3F1E0808182608083E1E3F1E08081D4
:100C10008861808308959091300195FFFCCF809387
:100C200036010895CF93DF931F921F92CDB7DEB7A1
:100C30000E9418051A8219828091B1058823E1F378
:100C40006091E4051092B10570E0CE0101960E941A
:100C5000090485B1805885B983B7816083BF8895C1
:100C600083B78E7F83BFE8CF0F931F93CF93DF931C
:100C7000CDB7DEB72E970FB6F894DEBF0FBECDBF4F
:100C80000E891F8986E08C831A8309838FEF9FE783
:100C90009E838D83AE01465E5F4F688D798DCE0158
:100CA00001960E9464062F813885020F131FF801F8
:100CB00010822E960FB6F894DEBF0FBECDBFDF9127
:100CC000CF911F910F9108952F923F924F925F9273
:100CD0006F927F928F929F92AF92BF92CF92DF924C
:100CE000EF92FF920F931F93CF93DF9300D000D02A
:100CF00000D01F921F92CDB7DEB77C013B018A0165
:100D0000FC0117821682838181FFDDC1CE0101962D
:100D10005C01F7019381F30193FD859193FF81912C
:100D20003F01882309F453C1853239F493FD85913D
:100D300093FF81913F01853229F4B70190E00E9431
:100D40007C08E7CF912C212C312CFFE1F31538F0F2
:100D50008B3211F190F4803209F1833229F137FCA2
:100D60003CC020ED280F2A3050F536FE20C08AE026
:100D7000989E200D1124922E06C08D3291F0803362
:100D800071F7689430F8F30193FD859193FF819199
:100D90003F018111DACF21C0689431F8689432F8AC
:100DA000F2CF689433F8EFCF689434F8ECCFEAE0F0
:100DB0002E9E200D1124222E689435F8E4CF8E3219
:100DC00029F436FC04C1689436F8DDCF8C3619F46A
:100DD000689437F8D8CF8836B1F2982F9F7D955414
:100DE0009330E0F08336A1F18337C1F1833509F008
:100DF00063C02801F2E04F0E511CF801C080D18081
:100E0000692D70E036FC02C06FEF7FEFC6010E94D3
:100E100066084C01689437F882010AC00C5F1F4FC6
:100E2000FFE3F98388248394912C6501E89437F8D3
:100E300033FE2DC0522C8114910471F5552009F414
:100E400068CFB70180E290E00E947C085A94F6CF08
:100E5000F801808189830E5F1F4FE4CF2801F2E003
:100E60004F0E511CF801C080D180692D70E036FC16
:100E700002C06FEF7FEFC6010E9471084C01820132
:100E8000D5CFB70180E290E00E947C082A94281414
:100E9000190409F0B0F7CECFF60137FC859137FE83
:100EA00081916F01B70190E00E947C0851105A9423
:100EB000F1E08F1A9108BFCF843619F0893609F016
:100EC00077C0F80137FE6BC06081718182819381A8
:100ED0000C5F1F4FF32DFF763F2E97FF09C09095B3
:100EE0008095709561957F4F8F4F9F4F689437F82D
:100EF0002AE030E0A5010E94AC08C82ECA188C2C4C
:100F0000432C36FE0CC0E89440F8C91440F434FE7B
:100F100005C032FC03C0F32DFE7E4F2E892C44FE0B
:100F2000AAC0FE01EC0DF11D8081803309F09CC048
:100F3000242D297E422E842D8870582E43FCAAC071
:100F400040FEA4C09C2C821418F42C0C922C9818EF
:100F500044FEA6C0B70180E390E00E947C0842FEF8
:100F600009C088E790E041FE02C088E590E0B70143
:100F70000E947C08C91408F49FC0CA94D12C9FEF2A
:100F8000C91AD90ACA0CDB1CF60182916F01B7019C
:100F900090E00E947C08AC14BD04B1F74FCF608193
:100FA0007181072E000C880B990B0E5F1F4F92CF9B
:100FB000D32CE894D4F82AE030E08537E1F1232DF2
:100FC000297FD22E8F36A9F1F0F4883551F1F7013F
:100FD000868197812B960FB6F894DEBF0FBECDBFEA
:100FE000DF91CF911F910F91FF90EF90DF90CF9005
:100FF000BF90AF909F908F907F906F905F904F9039
:101000003F902F900895803749F0883701F7D4FE3C
:1010100002C06894D2F820E130E00DC06894D4F8A2
:10102000F6CF34FE03C0822F8660D82E20E132E056
:1010300002C028E030E0F801D7FE0FC06081718166
:10104000828193810C5F1F4FA5010E94AC08C82EBE
:10105000CA183D2CE89437F852CF6081718190E036
:1010600080E00E5F1F4FF0CF42FC02C0839463CF3D
:101070008394839460CF842D867809F45CCFF6CF77
:10108000B70180E290E00E947C0883948214C0F350
:10109000512C5ECF522C5818821408F459CFF8CF37
:1010A000842D867809F466CF8BE241FE80E247FC0E
:1010B0008DE2B70190E05CCFB70180E390E00E9441
:1010C0007C089A9457CF8FEF9FEF84CFFC01059057
:1010D000615070400110D8F7809590958E0F9F1F3A
:1010E0000895FC016150704001900110D8F780957F
:1010F00090958E0F9F1F08950F931F93CF93DF93AB
:10110000182F092FEB018B8181FD09C01FEF0FEF15
:10111000812F902FDF91CF911F910F91089582FF22
:1011200014C02E813F818C819D81281739073CF4A2
:10113000E881F981CF0101969983888310838E819C
:101140009F8101969F838E83E3CFE885F985812F68
:101150001995892BA1F3DACFFA01AA27283051F18A
:10116000203181F1E8946F936E7F6E5F7F4F8F4FD8
:101170009F4FAF4FB1E03ED0B4E03CD0670F781F37
:10118000891F9A1FA11D680F791F8A1F911DA11D1C
:101190006A0F711D811D911DA11D20D009F4689455
:1011A0003F912AE0269F11243019305D3193DEF6FD
:1011B000CF010895462F4770405D4193B3E00FD0B3
:1011C000C9F7F6CF462F4F70405D4A3318F0495D9E
:1011D00031FD4052419302D0A9F7EACFB4E0A69581
:1011E0009795879577956795BA95C9F700976105A3
:1011F000710508959B01AC010A2E069457954795F9
:1012000037952795BA95C9F7620F731F841F951FED
:08121000A01D0895F894FFCF22
:1012180070F40478F80474FC047C00057204057A00
:101228000805760C057E1005711405791805751DDD
:10123800057D22057327057B2C057731057F36054B
:10124800003B05014405024D0503570504620505E9
:101258006D05077605067F05058805049105039C3D
:101268000502A705B9035B03C2038A03C903C203C6
:10127800D703AD00AA055804E503D600F2032701F9
:10128800060491011B0401022F0471024404E102C7
:101298005004C7005E04C7006C04C7007A04C70086
:1012A8008804C7009604C700A404C700B204C70096
:1012B800C004C700CE04C700DD04C700EC04C700A3
:1012C800000030000100010033000200020033007A
:1012D8000300030033000400040033000500050088
:1012E800330006000600330007000700330008003B
:1012F800080033000900090033000A000A0033001F
:101308000B00010031000C00020031000C0003004A
:1013180031000C00040031000C00050031000C0005
:10132800060031000C00070031000C0008003100F5
:101338000C00090031000C000A0031000C000B0001
:1013480031000C000B0033000C00746573743A20F4
:1013580050494C4F5420535441544520420900747D
:101368006573742061626F72746564210D0A00747C
:101378006573743A20504F574552204F4E09090063
:10138800746573743A2047524F554E4409090074E6
:101398006573743A2050494C4F5420535441544576
:1013A80020410900746573743A2044494F44450D3F
:1013B8000A090062656570090025750D0A090009AA
:1013C8000909657869740D0A00504F574552204F36
:1013D8004E0047524F554E440050494C4F542053ED
:1013E8005441544520410050494C4F5420535441D6
:1013F80054452042004F5645522043555252454EBF
:101408005400474643495F4C315F4C4F575F4C454A
:10141800414B41474500474643495F4C315F484986
:1014280047485F4C45414B41474500474643495F64
:101438004C325F4C4F575F4C45414B414745004745
:101448004643495F4C325F484947485F4C45414BEA
:1014580041474500535455434B2052454C41590090
:1014680053544154452041424F5254203100535463
:101478004154452041424F52542032005354415464
:10148800452041424F525420330053544154452083
:1014980041424F5254203400535441544520414254
:1014A8004F525420350053544154452041424F5225
:1014B8005420360053544154452041424F52542041
:1014C800370053544154452041424F52542038006C
:1014D80053544154452041424F52542039005354EB
:1014E8004154452041424F52542031300053544119
:1014F80054452041424F5254203131005448452030
:10150800454E440052543100525432005254330074
:101518005254340052543500525436005254370055
:101528005254380052543900525431300052543118
:101538003100525431320052543133005254313454
:10154800005254313500525431360053575F4C31F4
:101558005F494E0053575F4C325F494E0053575F07
:10156800474E445F494E0053575F5354414B5F4CBD
:10157800310053575F5354414B5F4C320053575F10
:101588004C315F4C4C0053575F4C315F484C005313
:10159800575F4C325F4C4C0053575F4C325F484C9E
:1015A8000053575F53544154455F420053575F53AC
:1015B800544154455F410053575F44494F444500E7
:00000001FF
